:020000040000fa
:080000000001040000000000f3
:020000040000fa
:0400080014020000de
:020000040000fa
:04000c002a020000c4
:020000040000fa
:0400100010030000d9
:020000040000fa
:0400140040020000a6
:020000040000fa
:04001800560200008c
:020000040000fa
:04001c0010030000cd
:020000040000fa
:0400200010030000c9
:020000040000fa
:0400240010030000c5
:020000040000fa
:0400280010030000c1
:020000040000fa
:04002c0010030000bd
:020000040000fa
:0400300010030000b9
:020000040000fa
:0400340010030000b5
:020000040000fa
:0400380010030000b1
:020000040000fa
:04003c0010030000ad
:020000040000fa
:0400400010030000a9
:020000040000fa
:0400440010030000a5
:020000040000fa
:040048006c02000046
:020000040000fa
:04004c00100300009d
:020000040000fa
:040050001003000099
:020000040000fa
:040054001003000095
:020000040000fa
:040058001003000091
:020000040000fa
:04005c00100300008d
:020000040000fa
:040060001003000089
:020000040000fa
:040064001003000085
:020000040000fa
:040068001003000081
:020000040000fa
:04006c00100300007d
:020000040000fa
:040070001003000079
:020000040000fa
:040074001003000075
:020000040000fa
:040078001003000071
:020000040000fa
:04007c00100300006d
:020000040000fa
:040080001003000069
:020000040000fa
:040084001003000065
:020000040000fa
:040088001003000061
:020000040000fa
:04008c00100300005d
:020000040000fa
:040090001003000059
:020000040000fa
:040094001003000055
:020000040000fa
:040098001003000051
:020000040000fa
:04009c00100300004d
:020000040000fa
:0400a0001003000049
:020000040000fa
:0400a4001003000045
:020000040000fa
:0400a8001003000041
:020000040000fa
:0400ac00100300003d
:020000040000fa
:0400b0001003000039
:020000040000fa
:0400b4001003000035
:020000040000fa
:0400b8001003000031
:020000040000fa
:0400bc00100300002d
:020000040000fa
:0400c0001003000029
:020000040000fa
:0400c4001003000025
:020000040000fa
:0400c8001003000021
:020000040000fa
:0400cc00100300001d
:020000040000fa
:0400d0001003000019
:020000040000fa
:0400d4001003000015
:020000040000fa
:0400d8001003000011
:020000040000fa
:0400dc00100300000d
:020000040000fa
:0400e0001003000009
:020000040000fa
:0400e4001003000005
:020000040000fa
:0400e8001003000001
:020000040000fa
:0400ec0010030000fd
:020000040000fa
:0400f00010030000f9
:020000040000fa
:0400f40010030000f5
:020000040000fa
:0400f80010030000f1
:020000040000fa
:0400fc0010030000ed
:020000040000fa
:0401000010030000e8
:020000040000fa
:0401040010030000e4
:020000040000fa
:0401080010030000e0
:020000040000fa
:04010c0010030000dc
:020000040000fa
:0401100010030000d8
:020000040000fa
:0401140010030000d4
:020000040000fa
:0401180010030000d0
:020000040000fa
:04011c0010030000cc
:020000040000fa
:0401200010030000c8
:020000040000fa
:0401240010030000c4
:020000040000fa
:0401280010030000c0
:020000040000fa
:04012c0010030000bc
:020000040000fa
:0401300010030000b8
:020000040000fa
:0401340010030000b4
:020000040000fa
:0401380010030000b0
:020000040000fa
:04013c0010030000ac
:020000040000fa
:0401400010030000a8
:020000040000fa
:0401440010030000a4
:020000040000fa
:0401480010030000a0
:020000040000fa
:04014c00100300009c
:020000040000fa
:040150001003000098
:020000040000fa
:040154001003000094
:020000040000fa
:040158001003000090
:020000040000fa
:04015c00100300008c
:020000040000fa
:040160001003000088
:020000040000fa
:040164001003000084
:020000040000fa
:040168001003000080
:020000040000fa
:04016c00100300007c
:020000040000fa
:040170001003000078
:020000040000fa
:040174001003000074
:020000040000fa
:040178001003000070
:020000040000fa
:04017c00100300006c
:020000040000fa
:040180001003000068
:020000040000fa
:040184001003000064
:020000040000fa
:040188001003000060
:020000040000fa
:04018c00100300005c
:020000040000fa
:040190001003000058
:020000040000fa
:040194001003000054
:020000040000fa
:040198001003000050
:020000040000fa
:04019c00100300004c
:020000040000fa
:0401a0001003000048
:020000040000fa
:0401a4001003000044
:020000040000fa
:0401a8001003000040
:020000040000fa
:0401ac00100300003c
:020000040000fa
:0401b0001003000038
:020000040000fa
:0401b4001003000034
:020000040000fa
:0401b8001003000030
:020000040000fa
:0401bc00100300002c
:020000040000fa
:0401c0001003000028
:020000040000fa
:0401c4001003000024
:020000040000fa
:0401c8001003000020
:020000040000fa
:0401cc00100300001c
:020000040000fa
:0401d0001003000018
:020000040000fa
:0401d4001003000014
:020000040000fa
:0401d8001003000010
:020000040000fa
:0401dc00100300000c
:020000040000fa
:0401e0001003000008
:020000040000fa
:0401e4001003000004
:020000040000fa
:0401e8001003000000
:020000040000fa
:0401ec0010030000fc
:020000040000fa
:0401f00010030000f8
:020000040000fa
:0401f40010030000f4
:020000040000fa
:0401f80010030000f0
:020000040000fa
:0401fc0010030000ec
:020000040000fa
:10020000ef9320000eff27000e0188000000000081
:10021000000020000000e000020032000001200089
:1002200020028800140007003c0107000000e000e5
:1002300003003a00a0e62100010020000200370080
:100240000000200001002000810f7000010032003a
:1002500014000700000020000000e000020032004f
:100260000000020000000000da1f02000000000091
:100270000040da000000fe004440a900e002200037
:100280000000e00003003200002020009001880000
:100290004440a800000006008a1f78008b1f7800e9
:1002a00000000600a1028800800478000000eb0036
:1002b0001f003700e284440054a0b4009905ba003e
:1002c000e284440054a0b4009906ba00e2844400d9
:1002d00054a0b4000006eb00476fde00fd07b2003b
:1002e000ae018800636ce10003003a00eaff0700fa
:1002f0000000eb000e003700606ce10008003a00df
:10030000004deb000a05e800020039003420ec0043
:100310000af0a0008b05e900f9ff3e000400370059
:100320006168e100010032000086eb000b0007006d
:1003300019c7ba001905ba000e04e00003003a001c
:100340000a00e000dbff3a0000000600fe07b200f2
:10035000ae0288008a047800f5ff37000cd0a300b5
:10036000e20f4d001c00390089027800354dba00bb
:100370000a05e800020039003420ec000af0a00071
:100380008b05e9000f003200254dba000a05e80090
:10039000020039003420ec000af0a0008b05e900cf
:1003a000080032000c00e0000600320015cdba0053
:1003b0000a05e800020039003420ec000af0a00031
:1003c0008b05e9008984e80054a0b4000b00e0002c
:1003d000e2ff3a00000006009902ba00055d7800cd
:1003e0008b05e900f7ff3200c82ade00055d7800c2
:1003f0008b05e900f3ff32000c00e000f1ff320052
:1004000019ddba00eeff37005020040000000000a4
:10041000ee03040000000000080e040000000000cd
:1004200000000400000000003200f8003400f80072
:10043000881f780018002000a801880008202000ec
:10044000980188004f0478000000fa008020a9007d
:10045000ffff37003200f8003400f800881f7800f2
:1004600018002000a80188000820200098018800ba
:100470004f0478000000fa008060a900ffff3700f9
:100480003200f8003400f800881f780018002000bf
:10049000a801880008202000980188004f047800f7
:1004a0000000fa008040a900ffff37003200f8008a
:1004b0003400f800881f780018002000a801880088
:1004c00008202000980188004f0478000000fa00fe
:1004d0008080a900ffff37003600f800809fbe0033
:1004e000829fbe00849fbe00869fbe003200f8003f
:1004f0003400f80010002000a00188000020200037
:10050000900188000200fa000040eb00004f7800e4
:10051000360037001e80fb006a00b90080007800ba
:10052000c088200000804000100078000000e0003b
:100530002d0032001e81fb006a10b9000000780017
:10054000e6004000c0882000008040001000be008f
:1005500061004000e08048006a11b9008201780023
:1005600022892000028141000089be001e80fb001c
:100570006a00b90000007800e6004000c088200052
:10058000008040001001be001e80fb006a00b90020
:10059000000078008080e800c088200000804000d3
:1005a0001000be00800f5100818f59000e003a00ec
:1005b0001e80fb006a00b90080007800c08820001f
:1005c0000080400010007800000001001e80fb0049
:1005d0006a00b90080007800208920000081400076
:1005e0006000b8000089be001e4fe8001e40780081
:1005f000e94f5000c7ff36008900a9000080fa00cb
:100600003400f9003200f9004f03be004f02be0073
:100610004f01be004f00be003600f900004006004a
:100620000040da000000fe000a00fa00110020007d
:10063000b1bf9f00c0bf9f006a8057002906070016
:100640004fb897000080fa00000006000a00fa0088
:1006500051002000b1bf9f00c0bf9f006a805700bb
:10066000220607005fb897000080fa00000006002d
:10067000889fbe0080047800e04980000000e00010
:1006800004003a000e0007000084eb000000e000c8
:1006900008003500e84980000900e000050032004c
:1006a00009004400060007000000e00001003d00d2
:1006b0000084eb00080078004f04be000000060034
:1006c000800078000100e00003003a0000002000f4
:1006d000e0498800000005000080eb0002002000d7
:1006e000828f500002003e00e14988000000eb00cc
:1006f000000006000600fa00000f780011079800bd
:10070000220798001e009000ae009000c20907006a
:100710002e0090000080fa00000006000000050096
:100720008001780002003700815978000201e90059
:100730000200e000fcff3a0000000600c182200039
:1007400000003700889fbe008a1f78000004be00aa
:10075000c900900069009000808f500005003900aa
:1007600009007800a30207008080eb000000e00091
:1007700016003500084578004900900008587800b8
:10078000c00498001900780000b8a30004003a00e3
:1007900000a8a30007003200ea4f540005003a0009
:1007a00009007800e70107008080eb000000e0000e
:1007b00006003a0000c0200019006000020032006c
:1007c00049009000e00498008a80fb000100780056
:1007d0004f0578004f04be0000000600889fbe0051
:1007e0000004780001007800820478008801780015
:1007f00009017800110020000d020700890f500048
:10080000010032000004eb00080078004f04be0035
:10081000000006000000fa00e88157004fb9970079
:10082000c1822000e03e2000020007000080fa00a4
:10083000000006006200fa00889fbe008a1f780050
:1008400000057800810478000204780083007800b5
:1008500080f92f000f004000980407009a979f002e
:10086000a9979f000000eb00b09f9f001885fb0038
:100870008a04fb000a05ea004f55de005002200002
:10088000808f54000d003200e10f55000b003a003c
:100890000a017800880078002f9097009f919700b8
:1008a00003000100a0979f000000e0008e003200ce
:1008b0003f9897000000e800b09f9f000a044400a2
:1008c00050022000808f5400040032000900e00034
:1008d000e6ff3a003f989700840037000000eb00e5
:1008e000909f9f00809f9f00f0979f00e0979f0040
:1008f000d0979f00c0979f000700370061922000ab
:100900000100500000004000a1912000610078002b
:10091000df98970001007000d09f9f008804780046
:1009200009047800384578008a00fb0060922000b6
:10093000240207000000e000f0ff3a00a1c2b3006b
:10094000814f55000e003a00cf8897000180e900e2
:10095000c08f9f0010007800c09f9f000000e00043
:1009600005003d000000ea00c09f9f005f989700cf
:100970000020a000d09f9f000904e8000f0037006e
:10098000c09f9f000000eb0005003700f2ff27002a
:10099000820f5000020032006a01b900028040005c
:1009a0000904780088047800b900fb000103b10055
:1009b000e98f5000f5ff3600c09f9f00e0c2b300f2
:1009c000984f1000020032000080eb001900370041
:1009d000a0c2b300d84f100007003a00cf8897009c
:1009e0000180e900c08f9f0010007800a09f9f0049
:1009f0000804e800100037000000eb00a09f9f00f3
:100a00008800780005003700f3ff2700830f5000af
:100a1000020032006a02b9000400410001047800bb
:100a2000880078003101fb000203b100e90f51009a
:100a3000f5ff3600a09f9f00984478008900fb00d6
:100a400020912000df0107000000e00002003200da
:100a50000804e800010037008044eb00c97f9f00d4
:100a600080c6b30080cf540004003a0098cf140031
:100a70000a003a006640500006003700c0c6b300c6
:100a800080cf540005003a0098cf140003003a00cc
:100a900065404000c07f9f000804e8001801fb008b
:100aa000e3fb2f008f81410081f92f008f804000f0
:100ab000a0f92f000f004000100007000000e00028
:100ac00009003a00e1fb2f008f804000a0f92f00c1
:100ad0000f0040003d0307000000e0000200350069
:100ae0000804e80061ff37000080eb004f05780044
:100af0004f04be000080fa0000000600889fbe0080
:100b00008a9fbe00e4c6b300844f5100be0032008d
:100b100010003c006b425200844f5100180032001c
:100b200005003c0054c2b300844f5100f60032006f
:100b300084c5b3000f00370044c6b300844f510092
:100b40001400320065424200844f5100f1003a0027
:100b50001000370004c7b300844f5100dd0032009d
:100b60005600350065424200844f51005300320068
:100b700063424200844f5100e6003a004f003700c4
:100b80001181e90082087800f0009000124178009d
:100b9000de00370020629000c5c6b300854f5200ca
:100ba00007003a00910278006482520084087800bd
:100bb0001402be004fabde0086037800140037003d
:100bc00015c7b300854f520003003a0011047800a6
:100bd0006802540005003700a5c6b300854f5200d7
:100be00006003a0091047800688254008408780076
:100bf0005403be004402be00050037001182e90024
:100c00008408780014027800cfa2de00612bb900be
:100c10000498be000690be00a060900088c6b30095
:100c200088cf50000d00320028c6b30088cf500096
:100c300004003a000402fb00cfa2de00612bb900e1
:100c40000800370048c7b30088cf500003003200c7
:100c50006644440088cf500004003a00cfa2de0072
:100c6000612bb9000498be000690be003002be00a1
:100c70002003be00f0009000e00f5200e08f5a0009
:100c8000e00f5b00e08f5b0002003d00d4c2b300c8
:100c900008003700001290000418a3000200320080
:100ca000b4c2b300030037000408a30051003200af
:100cb00004c2b30084f178004c0037002062900039
:100cc000c5c6b300854f520008003a0011057800f0
:100cd00064025500840878001404be006055b80012
:100ce0000802be000a03be001400370015c7b30097
:100cf000854f520003003a00910478006882540046
:100d000005003700a5c6b300854f520006003a0023
:100d10001105780068025500840878005403be006d
:100d20004402be00050037001182e9008408780003
:100d3000140278008002eb006033b8000498be0013
:100d40000690be00a060900088c6b30088cf500017
:100d50000d00320028c6b30088cf500004003a00ce
:100d60000482fb008002eb006033b800080037000b
:100d700048c7b30088cf50000300320066444400e7
:100d800088cf500004003a008002eb006033b800c6
:100d90000498be000690be00801090000138a300a9
:100da000140032003002be002003be00e00f5200eb
:100db000e08f5a00e00f5b00e08f5b000d00320017
:100dc00081c7b300814f51000300320081c5b300d9
:100dd000814f510007003a00f000900004c3b300b7
:100de00084f178008100e80082f178008100e80059
:100df00071009800f000900081814100630098002c
:100e0000824078003e003700a0619000c4c6b30065
:100e10001181e90084cf5100220032000a003c0019
:100e20006442520084cf51002500320004c2e80021
:100e300084cf5100130032006842520084cf510029
:100e40001e003a000a00370044c7b30084cf5100a7
:100e50001b0032006642420084cf5100180032006d
:100e60006942520084cf510014003a000500370057
:100e700082087800920078004058900080487800fe
:100e80002c0037008208780092007800600a9000f9
:100e9000cfa2de00612bb9008498be008690be0010
:100ea00024003700820878009200780060099000e2
:100eb000cf91de008288be001e0037001181e9005c
:100ec000820878009200780060089000800878001e
:100ed000180037001181e9008208780012027800ba
:100ee000cfa2de00612bb9000498be000690be00c0
:100ef000f0009000818141006300980081c7b30039
:100f0000030107000b003700f000900082f1780029
:100f100006003700f0009000818141000204e000eb
:100f200001003a0052c2b300824978008100e80013
:100f3000710098000000eb004f05be004f04be009a
:100f400000000600889fbe008a1f78000004780019
:100f50000800e0000d003a00a8872000700544005a
:100f60008004eb00580078000000e000040032002c
:100f7000f4ff07000000e00001003d008084eb006a
:100f80008a0f5400f7ff3a002500370000002200c6
:100f9000180060008004eb0021003200a8049000db
:100fa0000f00370009015100384090000000fb009d
:100fb00089007800cffd07000000e00007003c003a
:100fc000280090004004980060049800500c98009d
:100fd0001890a0008084eb0011003700808444004a
:100fe00048019000828f5400eeff390028009000e5
:100ff000400498009800780002c020000281600040
:1010000001003a003800900001e8a300020032001d
:101010006004980001003700500c98008004eb0039
:10102000090078004f0578004f04be00000006005c
:10103000889fbe008a9fbe008c9fbe008e1f7800d6
:10104000000678000104780002007800830478002c
:101050000881b900020778000200e0004200320077
:101060000800e0004100320082057800c9009000cd
:1010700069009000808f500004003900090078005a
:101080005c0007000000e00029003500004020005f
:10109000190060000a0032000b017800a100200056
:1010a0000c00780036000700800678000d00e00094
:1010b00006003200610516000a854600040037006c
:1010c0000b0578008006eb00010037000b05780067
:1010d00049009000e9009000808050008a8f500005
:1010e00002003100010578008006eb000a0178005b
:1010f0008c0078002c0007008a855500490090007c
:101100000a004000c00498000d00e0000400320016
:10111000090078008bff07000000e00004003a009f
:101120000b00e000020032000a064600cfff370045
:1011300000802000190060000200320009007800e1
:1011400080ff070000c0200019006000020032008c
:1011500049009000e00498008b0557001100090039
:101160008885d800010037000000eb004f077800a9
:101170004f06be004f05be004f04be000000060033
:1011800003003700b0cf1000050032000201e90073
:10119000800178000200e000faff3a00000005003c
:1011a000030078000000060080017800020037008c
:1011b000b15978000201e9000200e000fcff3a00aa
:1011c00000000600020037000304e00006003200c1
:1011d0000001780002007800b041780081cf510012
:1011e000f9ff3a00010037000001eb00020078002f
:1011f00000000600889fbe008a1f78000004780067
:10120000c8009000680190000000eb00828f500041
:101210003c0039001800780022002900020160001b
:10122000e20f510007003200012024000000e0001e
:1012300001003d0001202000008c70000080eb00c8
:10124000300037000200260002006000820f5000cc
:1012500009003a0038009000808f500006003900e5
:101260000800780037ff0700800078000080eb005e
:101270000100e00023003a001805780000c02000bb
:101280000000650018003a00a804900060022000e9
:1012900008004000808f540013003a000020200016
:1012a000dc020700200498000000e00005003a007e
:1012b00029049800490498008904e800390498003a
:1012c000080037000a60a0000a0c7800400498006b
:1012d000012020008080400031049800400c9800dc
:1012e000500c9800f9010700280090005004980065
:1012f000380090006004980000002600180c700070
:101300000000eb004f0578004f04be00000006000f
:10131000fc874700889fbe008a9fbe008c9fbe004e
:101320008e1f78000006780080c5b30080cf500083
:101330000a0032007740400080cf50000a0032009f
:101340006940400080cf50000b0032001090200018
:1013500080bf9f00ae0020000a003700028f2000ef
:1013600082bf9f00060037001390200083bf9f00bc
:101370008e002000030037001490200084bf9f00df
:101380000e0120003c02be002c03be000605be007c
:101390000404be0040c6b30080cf500003003200fa
:1013a0006540400080cf50000b003a00e00f520033
:1013b000e08f5a00e00f5b00e08f5b0006003d000d
:1013c0006000b8006011b800040450008584580023
:1013d0000605590087855900e80f570004003200c0
:1013e00040002000f00f570038003a00010037009d
:1013f00030002000e00f5400e08f5c00e00f5d0043
:10140000e08f5d0004003a00dc0890008d012000b0
:101410000100e000060032008e00e90088806000d4
:101420008fba9700e5c07800f1ef9f007d012000a2
:10143000800078008100e900050033008b05d100b1
:101440000a85d3008984d3000884d300f9ff3700cc
:10145000089ebe000a96be00120037008d06e90005
:101460008e00e900848060000fb99700e2c1780027
:1014700082fd2f000f01410003f17e008000780003
:101480008100e900050033008783d1000683d30083
:101490008582d3000482d300f9ff3700049ebe008a
:1014a0000696be003c02be002c03be00e00f5200b8
:1014b000e08f5a00e00f5b00e08f5b008b00340090
:1014c0000d00e000e5ff3c00880037002c60900034
:1014d00081c6b300814f50000b00320006003c0073
:1014e0000004e00008003200e6c05000814f5000c8
:1014f0004e003a0004003700c1c6b300814f5000cf
:101500004a003a00210037000800e00004003a00d9
:101510005c0890008d0120000000e0000600320011
:10152000110009000e84d8000fb99700e2c07800be
:10153000f1ef9f007d012000110009000e84d8000a
:101540000a003700110009000e04d8008d06e900da
:101550000e81b900020454008fb8970061417c00ed
:1015600081fd2f008f80400082f07e000004780013
:101570000800e000020032000d00e000f1ff3c0036
:10158000cfc4de00614db90025003700e00f5400e4
:10159000e08f5c0004003a005c0890008d012000a0
:1015a0000000e000070032006171b9000800be00d1
:1015b0006f0207008fb99700e3417800f3ef9f00b7
:1015c0007d0120006171b9000800be0058020700cb
:1015d0000b0037006171b9000800be00450207002a
:1015e0008d06e90000f1b900020454000fba97001b
:1015f000e4427c0084fd2f000f02420005f27e00d1
:101600000004be00e00f5000e08f580002003200de
:101610000d00e000efff3c004fcdde008a057800b2
:10162000089ebe000a96be0030003700e00f54004e
:10163000e08f5c00e00f5d00e08f5d0004003a0089
:101640005c0890008d0120000000e00009003200dd
:101650006172b900612bb9000800be000a01be002a
:10166000ec0207000fba970064427800f4ef9f0085
:101670007d0120006172b900612bb9000800be0035
:101680000a01be00dc0207000d0037006172b900dc
:10169000612bb9000800be000a01be00e10207008c
:1016a0008d06e90000f2b900040454008fba9700d7
:1016b00065427c0085fd2f008f82420084f27e000f
:1016c000009ebe000296be003c04be002c05be007b
:1016d000e00f5400e08f5c00e00f5d00e08f5d00e4
:1016e000020034000d00e000e8ff3c00e80f570066
:1016f00010003a000c1090000038a3000d003200da
:10170000f78f560006003e0085fd2f008f824200b5
:10171000e5c07e0000c3b30080cf5000050032005a
:101720008d06e90002c3b30081fd2f008f804000c9
:1017300082f07e0078811600120e98006c009000f6
:1017400083fd2f008f8141008d80410096fe0700b0
:101750001c089000dc089000810f500006003d003e
:1017600000805000000e98000c1090000040a10076
:10177000001698000f0037000100e0000d003d004a
:101780008c109000f4806000f08f500009003a0047
:101790007c099000fc009000810051000c09900031
:1017a00082805000008050004240a90001003400b7
:1017b000000e98004f0778004f06be004f05be0090
:1017c0004f04be00cf01b100000006000400fa0083
:1017d000889fbe008a9fbe008c1f7800000478009e
:1017e00001067800f80d9000780090008085550083
:1017f00008089000808555001808900080855500e5
:101800002808900080855500380890008085550094
:1018100048089000808555000002220090bf9f007c
:1018200000032300a0bf9f00081090000028a30021
:1018300015003a000b00e000130034000b0578009f
:101840008a047800e20f55000100360029002000cc
:10185000c801900009017800ee8057005800900000
:1018600003000100500498000000e0008c003200ea
:101870006808900009004000600c980009055500b8
:101880004240a900eeff3c00780190000200e00019
:101890000c003400c80190008c00780058009000c3
:1018a00003000100500498008080eb000000e0007d
:1018b0007c003200e8089000780090000080400032
:1018c000600c9800880c90000900e00011003400c2
:1018d00009057800e28f5400010036002a0020003c
:1018e000c80190000a017800ec8057005800900071
:1018f00003000100500498000000e000680032007e
:10190000680890000a004000600c98008a84540027
:10191000edff3700180990000200e0000c003400d1
:10192000c8019000e80090005800900003000100fa
:10193000500498008080eb000000e0005900320065
:10194000e80890001808900000804000600c9800a3
:10195000a80c90000900e00011003400090578008f
:10196000e28f5400010036002a002000c8019000d8
:101970000a017800ec805700580090000300010035
:10198000500498000000e000450032006808900014
:101990000a004000600c98008a845400edff370074
:1019a000380990000200e0000e003400e8009000ca
:1019b0001808900080804000c801900058009000f6
:1019c00003000100500498008080eb000000e0005c
:1019d00034003200e8089000380890000080400091
:1019e000600c9800c80c90000900e0001100340061
:1019f00009057800e28f5400010036002a0020001b
:101a0000c80190000a017800ec805700580090004f
:101a100003000100500498000000e00020003200a4
:101a2000680890000a004000600c98008a84540006
:101a3000edff3700081090008000eb000028a300a5
:101a4000180032000b00e000160034008b04780010
:101a500009057800e28f5400010036002a002000ba
:101a6000c80190000a017800ee80570058009000ed
:101a700003000100500498000000e000080032005c
:101a8000680890000a004000600c98008a845400a6
:101a90004240a900eeff3c008000eb00010037004f
:101aa0008080eb00010078004f0678004f05be00f3
:101ab0004f04be000080fa00000006000108780014
:101ac0000000060080e0200061003700881f7800d9
:101ad000889320001804e00003003a00f9ff070093
:101ae00020c0b300004c78004f04780000000600ce
:101af000889fbe00000478000800780011fd0700f0
:101b00008004780000042000180060000200320009
:101b1000280090005a0007000000eb002004980005
:101b2000384090000004e000050035000000fb0094
:101b3000bdfa07000000e000010032008084eb00e5
:101b4000181090000000e00008003200bffa070003
:101b50000000e000010032008084eb0018109000cb
:101b6000470007000000eb00101498000008200058
:101b700018006000150032000001eb006000b800a2
:101b8000c38720000202d00063027a00880f52004f
:101b900005003a00000040008180480000804100bc
:101ba0000008eb000600370061004000e0804800bc
:101bb0000201e800e80f5000e08f5800f0ff3a0003
:101bc000080078002e0007000e003700000c780097
:101bd00000c0eb0030449800600220000800400084
:101be000200498004004980050049800400c98008d
:101bf00060049800500c980070049800760044002f
:101c0000000c9800090078004f04be000000060098
:101c1000881f78000004eb006140b800e2ff2f004d
:101c2000f3ff2f00d5000700a28820006200780093
:101c30000000e00001003200adff07000804e800ea
:101c4000e80f5400f4ff3a004f047800000006004b
:101c5000010020000100e0000800320001008000c7
:101c60000100e000050032008100e9000100880069
:101c70008100d0000200800000b178000000060062
:101c80000000e0002f003200c0017800e38f510017
:101c90002c0036000308a3002a003a00b149800056
:101ca0000100e00002003200810f5000040031000a
:101cb00011009800b04988001600370082007800b3
:101cc000110190000200e00002003200800f51007c
:101cd000faff39001102780084824000850f50001d
:101ce00018003900808f520003003a008308420038
:101cf00001007800070037000200e0000300320016
:101d000083014000830f51000e003900120098003b
:101d100090009800900090000100e000090032005f
:101d200010014000828f500006003a0042932000cc
:101d30000009eb00100178001108410091009000ab
:101d40001100980000000600889fbe000004780083
:101d5000a14980000100e00002003200010078008b
:101d60000d003700b1498000609320000400370067
:101d7000910f5400250036000180e800910090008a
:101d80000100e000faff3a0010003700920f540003
:101d90001e0036000280e800100178000200e0001a
:101da000faff3a0011017800b149800060932000e9
:101db00004003700910f5400140036000180e80041
:101dc00091009000828f5000faff3a00d9498000bc
:101dd000888f5400010031008804780009007800e1
:101de000360007000000e00004003a00888f54002d
:101df000050032008904d100f5ff3700091878008a
:101e00009fff0700d2ff37000000eb004f04be0029
:101e100000000600881f7800630440000800a1004d
:101e20008000eb00800f540021003600e30f5400c7
:101e300001003e004800200008007800c2ff0700b3
:101e40008000eb000000e0001900320090007800f4
:101e50009101780064815100880f51000300310026
:101e60001101900002087800070037000881400047
:101e70000208780091019000130198001001780089
:101e80001109140088087800100178000000eb00a8
:101e90000200e00004003200920190000300e00024
:101ea000010032000280e800a04988008180e8003b
:101eb000010078004f0478000000060080007800e0
:101ec0000000eb000100e000050034000100780094
:101ed000e7f90700e10f400001003a000000eb00c5
:101ee0000000060000c0da000000060000c0da00b2
:101ef00000000600839f68000100e00002003d0032
:101f000060001000e08018000300e00002003d00c7
:101f100060011100e0811900050007004f00e0009a
:101f200002003b0060001000e08018000000060086
:101f30006022b800060220000000d0008180d2009c
:101f40000482d2008582d2000000a000020252006a
:101f500083825a00030031000202420083824a0059
:101f60000000a1000603e900f3ff3a0000000600ac
:101f7000efff07000400be0000000600020ab900df
:101f8000001bb9000200b80081004200810043003c
:101f900000000600889fbe008a9fbe0030044200f9
:101fa000b0844a0030054b0090854b006000b100c2
:101fb0000898be000a90be000440e10005c8e10098
:101fc00006d0e10007d8e1000200310068004000bf
:101fd0001008e8004f05be004f04be0000000600d8
:101fe000889fbe008a9fbe003004be002005be0050
:101ff0000418540005985c0006185d0007985d0001
:10200000110020000440e10005c8e10006d0e10015
:1020100007d8e100010039008000eb0010881000b3
:102020004f05be004f04be00000006001200fa007b
:10203000889fbe008a9fbe008c9fbe00e0b79f00b5
:10204000f1b79f0082bf9f0093bf9f000605be00af
:102050000404be000000eb00d0b79f00c0b79f0093
:10206000b0b79f00a0b79f0090b79f000006eb009d
:102070005fb19700cfb09700820141003fb0970059
:102080000200e00004003d00370007007e8057009a
:10209000c0ff070003003700330007007e805700b1
:1020a000cfff0700dfb697000d00e0000c00350001
:1020b0006fb29700ffb297000fbb97009fbb9700ce
:1020c00010002000010020006011b8000002720022
:1020d0008182720002037300838373001b00070078
:1020e0000c06e80001042000810f5600e0ff3a00d2
:1020f0000d00e00004003d000802be000a03be001f
:102100007e805700a3ff07005fa897000000e00053
:1021100005003a001fb29700afb297003fb3970097
:10212000cfb39700090007006fb09700ffb097008a
:102130000fb997009fb997004f06be004f05be002c
:102140004f04be000080fa000000060001000700f6
:1021500000000600a4b79f00b5b79f00c6b79f0058
:10216000d7b79f00000006004f09de008281710092
:10217000b3b79f004f01de00818040008280700075
:10218000a1b79f008fb097004f09de00000040000c
:102190000200700090b79f007fa897004f01de00fb
:1021a000818040008280700081b79f000d00070091
:1021b0004f3ade000000400004007000f0af9f00c6
:1021c000080007000402420085824a0006034b0013
:1021d00087834b00dfff07000802be000a03be0032
:1021e000000006002fb29700bfb297004fb39700d0
:1021f000dfb3970000000600881f78001800200059
:10220000881f780089ff07008f87e9004f04780056
:1022100000000600801feb0084ff07008f87e900a5
:1022200000000600889fbe008a9fbe00e00f50009d
:10223000e08f5800e00f5900e08f59000c003d007e
:102240006044b8006055b8000000540081805c0014
:1022500002015d0083815d00180020001500070069
:1022600008003d00180007000004eb0005003700df
:102270000004eb000f00070002003d001200070001
:1022800018002000dcff07000800e0000600320014
:102290006022b8006033b8000000520081805a000c
:1022a00002015b0083815b004f05be004f04be004e
:1022b00000000600e00f5200e08f5a00e00f5b00c4
:1022c000e08f5b00000006006044b8006055b80075
:1022d0000402540085825c0006035d0087835d0074
:1022e00000000600889fbe008a9fbe008c1f7800f9
:1022f000e00f5000e08f5800e00f5900e08f5900c8
:102300000d003d006044b8006055b8000000540066
:1023100081805c0002015d0083815d001c00200063
:102320000820e10009a8e1000ab0e1000bb8e100d3
:102330000d003d00080037000006eb00e00f5200e2
:10234000e08f5a00e00f5b00e08f5b0006003d006d
:102350006044b8006055b8000402540085825c00f7
:1023600006035d0087835d00aaff07000c00e00004
:10237000060032006022b8006033b800000052004e
:1023800081805a0002015b0083815b004f06780068
:0c2390004f05be004f04be000000060018
:020000040000fa
:10239c00546900006d6500002025000030320000fb
:1023ac00643a000025300000326400003a25000039
:1023bc00303200006420000020200000506f00002c
:1023cc00742000003d20000025340000640d000046
:1023dc000a000000000300000306000001040000d6
:0c23ec00060200000500000003050000d0
:020000040000fa
:1023f8001200fa00000f9800e3004700021f2900ae
:102408000b000900b258780040c3b3000000fb007d
:102418004400dd008040780090c3b3006f40600046
:1024280000c07000804078000e089000714098004d
:1024380040c3b3000000fb004400dd00804078008a
:1024480020c3b3006f40600000c070008040780077
:102458000e0890006140980010c3b3000000fb0014
:102468004400dd008040780060c3b3006f40600026
:1024780000c07000804078000e089000514098001d
:1024880000c2b3000000fb004400dd00804078007b
:1024980030c3b3006f40600000c070008040780017
:1024a8000e0890003140980010c3b3000000fb00f4
:1024b8004400dd008040780090c3b3006f406000a6
:1024c80000c07000804078000e089000114098000d
:1024d800a0c4b3000000fb00a1042000810f50003d
:1024e8001e003200a1042000810f50000a003c00a9
:1024f80041042000810f5000610032006104200077
:10250800810f50003200320011042000810f50006a
:10251800420032005d003700e1042000810f5000c6
:1025280054003200e1042000810f500004003c00f8
:10253800d1042000810f50002800320053003700da
:10254800f1042000810f50004700320031052000bf
:10255800810f5000410032004c00370050c7b300d3
:102568000000fb0011062000810f5000040032001b
:1025780051072000810f500004003200430037004b
:1025880010c0b3001047980010003700e0c6b30031
:102598000000fb00c1062000810f50000700320038
:1025a800e1062000810f50000100320006003700cc
:1025b80060c0b300104798000300370070c0b30034
:1025c8001047980000000000000000002f003700ae
:1025d80020c0b300104798002c003700e0c6b300b5
:1025e8000000fb0021072000810f5000040032008a
:1025f80091072000810f50000400320023003700ab
:1026080030c0b300104798000300370050c0b30033
:1026180010479800000000001c00370050c7b300a6
:102628000000fb0001072000810f50000400320069
:1026380051072000810f50000400320013003700ba
:1026480040c0b300104798000300370080c0b300b3
:1026580010479800000000000c00370090c0b3003d
:10266800104798000900370000c1b30010479800d0
:102678000600370010c1b300104798000300370068
:1026880020c1b30010479800000000000e08900019
:102698009e4090002140980060c0b300004f780031
:1026a8000e089000104090000080fb004400de00ff
:1026b800004078006a00b900000078008040780087
:1026c8000e089000104090006f40600000c040006d
:1026d800204798002e4090000080fb004200de005a
:1026e800804078002e40900000c040001e4f4000ff
:1026f8002e409000634060000004e00004003a00af
:102708001e409000e24f500001003e001e4fe900bd
:102718001e4090000080fb000000e9000000470018
:10272800304090001e4f40000e089000304090004e
:102738000080fb004400de00004078006a00b90019
:1027480000007800804078000e089000304090002b
:102758006f40600000c040001e4f40009e80fb009c
:102768007000200000017800110009008280d80064
:102778008000fd00004f78000e0890009e40780011
:10278800414098000e089000104078000004a20014
:102798000004e000230032000e0890001040900072
:1027a800f90007008e089000904098000e089000ed
:1027b80020409000f40007008e089000a040980088
:1027c8000e08900030409000ef0007008e0890003f
:1027d800b04098000e08900040409000ea000700c2
:1027e8008e089000c04098000e089000504090005d
:1027f800e50007008e089000d04098000e08900071
:1028080060409000e00007008e089000e0409800cb
:102818000e08900070409000db0007008e089000c2
:10282800f04098000080fa00000006000200fa005c
:10283800881f7800000f7800220020006004200024
:102848007105200003102000804978008149780034
:1028580082497800cc21ef00871f7800881f780014
:102868000500fc0057052000373b8800a80a200017
:10287800383b8800cd61a9004f047800cf03780069
:102888001e007800104078000004e00022003200aa
:102898001e007800104090000080fb004800dd001a
:1028a800800078001e007800204090000080fb0027
:1028b80001007000100f88001e0078003040900062
:1028c8000080fb00c800dd001e007800404090003a
:1028d8000080fb0001007000000f88001e007800d7
:1028e800504090000080fb00c800dd001e0078000a
:1028f800604090000080fb0001007000f00e88002e
:102908001e007800704090000080fb004800dd0049
:10291800e00e8800270037001e0078001040900065
:10292800840007000080fb004804dd001e007800da
:10293800204090007f0007000080fb000800700026
:10294800100f88001e0078003040900079000700c2
:102958000080fb004804dd001e0078004040900025
:10296800740007000080fb0008007000000f88005a
:102978001e007800504090006e0007000080fb00a9
:102988004804dd001e0078006040900069000700e0
:102998000080fb0008007000f00e88001e00780020
:1029a80070409000630007000080fb004800dd00d5
:1029b800e00e880010002800600e88004f047800a0
:1029c8000080fa00000006000400fa0010079800d2
:1029d800d861a80000000000c00e800068006000f8
:1029e8000000e000fcff3200910f8000010f78002a
:1029f8001e007800804078001e009000214098005a
:102a08001e0078004800de00804078001e0090001c
:102a180011409800810f8000010f78001e00780097
:102a2800804078001e009000414098001e00780009
:102a38004800de00804078001e0090003140980079
:102a4800710f8000010f78001e0078008040780028
:102a58001e009000614098001e0078004800de00cb
:102a6800804078001e00900051409800610f80005f
:102a7800010f78001e0078004800de0080407800d2
:102a88001e009000714098001e00900010407800d1
:102a98000004a2000004e000230032001e009000a1
:102aa80010409000380007009e0090009040980069
:102ab8001e00900020409000330007009e00900008
:102ac800a04098001e009000304090002e000700a3
:102ad8009e009000b04098001e009000404090007a
:102ae800290007009e009000c04098001e0090003a
:102af80050409000240007009e009000d0409800ad
:102b08001e009000604090001f0007009e0090008b
:102b1800e04098001e009000704090001a000700e6
:102b28009e009000f0409800d861a9000080fa004b
:102b3800000006000200fa00004f78009e80fb00ab
:102b4800d0cc2c000008b8004308de000040780014
:102b58000080fb004400dd00804178001e81fb00fe
:102b6800d0cc2c000010b8004308de006a00b90081
:102b780000007800000051000040780000c071009b
:102b88000080fa00000006000200fa00004f7800fa
:102b98001e80fb004400de00004078006a00b90097
:102ba80000007800804078001e4178006f40610086
:102bb80000c040000080fa00000006000200fa0091
:102bc800000f78001e00780018ff07000080fa0048
:102bd800000006000200fa00000f78001e007800ce
:102be80079ff07000080fa00000006000800fa00dc
:102bf800889fbe008a9fbe008c9fbe00410980004e
:102c0800f07f2e00008060004009880041098000a4
:102c18000030200001007000400988004109800050
:102c2800f0f32f00008060004009880028a1a90067
:102c38002881a9002841a9000020200090098800c7
:102c480031e1a90031c1a8003181a8003141a800b3
:102c58003121a80031a1a8003101a9008109800013
:102c6800f0f92f000080600080098800a109800029
:102c7800f0ff230000806000a0098800a1098000ff
:102c8800000c200001007000a0098800a109800044
:102c9800c003200001007000a0098800a00980007e
:102ca8003000b300a00988002a61ef00100020005e
:102cb800700988002de1a8002dc1a8002d81a80069
:102cc8002da1a900610980000060200001007000aa
:102cd800600988002d01a80029e1a80000882300c8
:102ce800110020008c01070000882300110020003b
:102cf800890107003203200001002800010f780035
:102d08004100200011079800a00180009e0190005a
:102d18009e007800a301880082087800a00188003e
:102d280050032000010020007b010700220320003f
:102d38000100280021079800410020003107980071
:102d4800a0018000be019000ae009000a3018800a1
:102d580082087800a00188005003200001002000ac
:102d68006d010700820320000c0028004d002000a0
:102d7800a00180008d0178008c007800a3018800f4
:102d880082087800a001880050032000010020007c
:102d980061010700c20020000a0028004b00200043
:102da800a00180008b0178008a007800a3018800c8
:102db80082087800a001880050032000010020004c
:102dc8005501070062002000080028004900200083
:102dd800a00180008901780088007800a30188009c
:102de80082087800a001880050032000010020001c
:102df800490107007800070010c0b3004f06be0065
:102e08004f05be004f04be000080fa000000060017
:102e18000400fa00000f7800110798000a00370034
:102e28001e007800104078000000fb000000e00061
:102e3800110032001e007800104078001e0fe800d4
:102e480010000700000000001e00900000f0a7001e
:102e58000000ea000000ea004f00de0000407800b1
:102e68009e0090008100e900110798000004e0002e
:102e7800ebff3a0001003700000000000080fa0074
:102e8800000006000200fa00889fbe00004f78008c
:102e98001e00fb00ea0f50000b003200ea0f500042
:102ea80003003c00e80f50000e0032001400370009
:102eb800ec0f500010003200ed0f500010003a00e7
:102ec800640007004100370000c8bf000004e000ac
:102ed80002003a00050107003c003700f80007002f
:102ee8003a0037007c00070000c2b300e5ff070086
:102ef8007900070035003700370007003300370036
:102f080001c8bf00f04f500020003a000168ef00f0
:102f180000c8bf000004e0000f003a00020c2000c7
:102f28000400280045002000a001800085017800e9
:102f380084007800a301880082087800a001880036
:102f48005003200001002000f300070010c0b30068
:102f580000e8b7000d003700040820000200280030
:102f680043002000a00180008302780082007800de
:102f7800a501880084087800a0018800500320007b
:102f880001002000e40007000068ef001e01fb00bc
:102f98002800280049002000a0018000890178004d
:102fa80088007800a301880082087800a0018800c2
:102fb8005003200001002000d700070001c8bf000f
:102fc8000040e80001e8b700000000004f04be0020
:102fd8000080fa00000006000000fa00889fbe008a
:102fe800130020000000280041002000a2018000fa
:102ff8000102780000007800a40188000308780026
:10300800a2018800a088200001002000c20007005b
:10301800220020000800280049002000a0018000ac
:103028008901780088007800a30188008208780068
:10303800a0018800a088200001002000b600070039
:103048000068ef000168ef004f04be000080fa003e
:10305800000006000000fa000480200014427800f6
:103068000404e0000d003a000408200002002800d3
:1030780043002000a00180008302780082007800cd
:10308800a501880084087800a0018800500320006a
:1030980001002000a00007000c003700030c2000ee
:1030a8000000280041002000a201800001027800f1
:1030b80000007800a401880003087800a2018800b5
:1030c8005003200001002000930007000168ef0072
:1030d8000080fa00000006000200fa0016802000b6
:1030e800164378000604e00028003a0000c8bf0034
:1030f8000004e0000f003a00020c20000400280041
:1031080045002000a0018000850178008400780037
:10311800a301880082087800a001880050032000dd
:10312800010020007c00070010c0b30000e8b700d1
:103138000d0037000408200002002800430020008a
:10314800a00180008302780082007800a501880031
:1031580084087800a00188005003200001002000a6
:103168006d0007000068ef000040eb00004f78009a
:1031780002003700190007001e4fe8001e407800c3
:10318800ee4f5000fbff360012003700128020007f
:10319800124178000241e900824178001180200044
:1031a8008348780003012000000028004100200027
:1031b800a20180000102780000007800a4018800c4
:1031c80003087800a20188005003200001002000b5
:1031d800510007000080fa00000006000000fa0015
:1031e800889fbe008a9fbe0043012000000028007f
:1031f80041002000a2018000010278000000780050
:10320800a401880003087800a20188005003200068
:10321800010020004000070001c8bf000040e8008e
:1032280001e8b70001c8bf00f04f500020003a0085
:103238000168ef0000c8bf000004e0000f003a007a
:10324800020c20000a0028004b002000a00180008a
:103258008b0178008a007800a30188008208780032
:10326800a001880050032000010020002a00070068
:1032780010c0b30000e8b7000d00370002082000b6
:103288000800280049002000a0018000890178007a
:1032980088007800a301880082087800a0018800cf
:1032a80050032000010020001b0007000068ef0009
:1032b8004f05be004f04be000080fa000000060063
:1032c8000200fa000040eb00004f780002003700cf
:1032d80081ff07001e4fe8001e407800ef4f5000a6
:1032e800fbff36000080fa00000006000200fa002a
:1032f8000040eb00004f780002003700b7ff0700de
:103308001e4fe8001e407800ef4f5000fbff3600cc
:103318000080fa00000006000400fa00008fbe00da
:1033280005003700000000000081eb008081eb0001
:103338001e0f41005e9749001e00be00e00f5000be
:10334800e08f5800f7ff3a000080fa0000000600fe
:103358000200fa00004f78001e4078000004e000e8
:103368000d003200f2002000040028004500200073
:10337800a00180008501780084007800a3018800fe
:1033880082087800a0018800500320000100200076
:10339800e1ff07000c003700c400200002002800ed
:1033a80043002000a001800083027800820078009a
:1033b800a501880084087800a00188005003200037
:1033c80001002000d4ff07000080fa00000006007a
:1033d8000200fa00000f78001e007800e40f500089
:1033e80018003200e40f500007003e00e20f5000c2
:1033f80010003200e20f500010003e00e10f5000b4
:103408000a00320019003700e60f500011003200a0
:10341800e60f50000d003900e70f50000f00320092
:10342800e80f50000f003200100037006606a800b1
:103438000e0037006626a8000c0037006646a80074
:103448000a0037006666a800080037006686a800ec
:103458000600370066a6a8000400370066c6a80064
:103468000200370066e6a800000000000080fa00ad
:10347800000006000200fa00000f78001e00780025
:10348800e40f500018003200e40f500007003e001f
:10349800e20f500010003200e20f500010003e0012
:1034a800e10f50000a00320019003700e60f500003
:1034b80011003200e60f50000d003900e70f5000f0
:1034c8000f003200e80f50000f00320010003700e4
:1034d8006606a9000e0037006626a9000c00370012
:1034e8006646a9000a0037006666a900080037008a
:1034f8006686a9000600370066a6a9000400370002
:1035080066c6a9000200370066e6a90000000000b0
:103518000080fa00000006000200fa00000f7800a0
:103528001e007800e40f500038003200e40f50000d
:1035380007003e00e20f50001a003200e20f500070
:1035480025003e00e10f50000a00320070003700ed
:10355800e60f500047003200e60f500038003900ef
:10356800e70f500050003200e80f50005b003200b7
:103578006700370030338000004078006140600009
:103588000004a200614060000080fb006100600050
:10359800313380000100a100010070003033880041
:1035a8005b003700303380000000d10061406000cc
:1035b8000004a200614060000080fb006100600020
:1035c80000004000313380000110a10001007000ac
:1035d800303388004e003700303380004200de0070
:1035e800614060000004a200614060000080fb00b0
:1035f800610060004200dd00313380000120a1003d
:1036080001007000303388004100370030338000fb
:103618004300de00614060000004a20061406000d9
:103628000080fb00610060004300dd003133800052
:103638000130a100010070003033880034003700e9
:10364800303380004400de00614060000004a200c6
:10365800614060000080fb00610060004400dd0004
:10366800313380000140a100010070003033880030
:1036780027003700303380004500de0061406000dd
:103688000004a200614060000080fb00610060004f
:103698004500dd00313380000150a10001007000b9
:1036a800303388001a003700303380004600de00cf
:1036b800614060000004a200614060000080fb00df
:1036c800610060004600dd00313380000160a10028
:1036d80001007000303388000d003700303380005f
:1036e8004700de00614060000004a2006140600005
:1036f8000080fb00610060004700dd00313380007e
:103708000170a10001007000303388000000000043
:103718000080fa00000006000200fa00000f78009e
:103728001e007800e40f50002a003200e40f500019
:1037380007003e00e20f500016003200e20f500072
:103748001c003e00e10f50000a0032004c00370018
:10375800e60f50002f003200e60f50002500390018
:10376800e70f500034003200e80f50003b003200f1
:1037780043003700303380006100600000f0a7008c
:103788000000ea000000ea004f00de000040780078
:103798003c003700303380006200600000f0a70072
:1037a8000000ea000000ea004f00de000040780058
:1037b80034003700303380006400600000f0a70058
:1037c8000000ea000000ea004f00de000040780038
:1037d8002c003700303380006800600000f0a7003c
:1037e8000000ea000000ea004f00de000040780018
:1037f80024003700303380007000600000f0a7001c
:103808000000ea000000ea004f00de0000407800f7
:103818001c00370031338000000220000080600067
:1038280000f0a7000000ea000000ea004f00de00f8
:103838000040780013003700313380000004200076
:103848000080600000f0a7000000ea000000ea0025
:103858004f00de00004078000a0037003133800056
:10386800000820000080600000f0a7000000ea00c7
:103878000000ea004f00de00004078000100370039
:103888000040eb000080fa00000006000200fa0089
:10389800000f78001e007800e40f50001800320076
:1038a800e40f500007003e00e20f50001000320005
:1038b800e20f500010003e00e10f50000a003200f5
:1038c80019003700e60f500011003200e60f5000d3
:1038d8000d003900e70f50000f003200e80f5000cc
:1038e8000f003200100037006206a9000e003700f2
:1038f8006226a9000c0037006246a9000a003700ba
:103908006266a900080037006286a9000600370031
:1039180062a6a9000400370062c6a90002003700a9
:1039280062e6a900000000000080fa00000006001e
:103938000400fa00100798001e009000e40f5000e1
:1039480004003200e50f50000400320000c0eb0014
:1039580010003700000000000100370000000000e0
:103968001e0090000d000700d1cc2c000100b8000b
:103978004308de00004f780040c6b3009e40780040
:1039880080cf50000200360040c6b300004f7800d8
:103998001e4078000080fa00000006000400fa00cb
:1039a800100798001e009000e40f50000400320039
:1039b800e50f5000040032000080eb001f003700c4
:1039c8000000000001003700000000009e00900089
:1039d800613a88004627a8000000eb00000f780035
:1039e80002003700000000001e0fe800703e2000b3
:1039f8009e007800808f5000faff36004627a90005
:103a08000000eb00000f7800020037000000000003
:103a18001e0fe800703e20009e007800808f500046
:103a2800faff360000000000303a800061006000b4
:103a38000000e000fcff3200903880000080fa00af
:103a4800000006000200fa00000f78001e0078004f
:103a5800e40f500003003200e50f500004003a0064
:103a68007ea6a8007e86a80010c0b300010037001b
:103a78000040eb000080fa00000006000200fa0097
:103a8800000f78001e0078000000e0001a003a00dd
:103a9800413a8000f0ff230000806000403a88002f
:103aa80000c0eb004ae7b700313a8000f0f02f0081
:103ab80000806000303a8800513a8000f00f2e00f4
:103ac8000080600000c0a000503a8800313a8000b1
:103ad800f0cf2f0000806000303a8800413a800023
:103ae80030f82f0000806000403a880047e7a800bf
:103af80010c0b300010037000040eb000080fa005e
:103b0800000006000400fa00100798000040eb00cf
:103b1800004f7800110037001e80fb006a00b900d2
:103b280080007800c0882000008040009000780065
:103b38001e009000808f500007003a001e80fb0096
:103b48006a00b90080007800c0882000008040002a
:103b58008000eb00010878001e4fe8001e40780046
:103b6800e94f5000ecff36000080fa000000060024
:103b78000800fa00100798002207980033079800f9
:103b880002c8bf000004a2000004e00002003200e6
:103b98000040eb00280037000040eb00004f7800a1
:103ba800210037001e80fb006a00b9008000780001
:103bb800c088200000804000100078000000e0006d
:103bc80018003a001e80fb006a00b90080007800e7
:103bd800c0882000008040009e0090000108780006
:103be8001e80fb006a00b90080007800e088200091
:103bf800008040002e019000be0190000288be00a7
:103c08001e80fb006a00b90080007800208920002f
:103c1800008140006000b8000089be0010c0b300f9
:103c2800050037001e4fe8001e407800e94f50009d
:103c3800dcff36000040eb000080fa0000000600c0
:103c48000200fa00000f78001e0078000000e00073
:103c580003003200e10f5000150032001800370051
:103c6800420620008000eb00c0882000aaf207006e
:103c78006105800080ff2f00008060000000a00028
:103c8800600588008900a9009a21ef0000e8230058
:103c9800f00c880000002a00100d88009900a80088
:103ca80010c0b30002e8b70010c0b3000500370029
:103cb8009900a9000268ef0010c0b30001003700a6
:0c3cc8000040eb000080fa000000060045
:020000040000fa
:103cd4000008000002000000800000002c09000021
:103ce40008000000800000008c0800006400000050
:103cf40080000000020800000200000080000000b4
:103d04000408000088000000820000000100000098
:103d1400002a08002b082a00082a08002a082a007a
:103d2400081a080000000000000000000000000065
:103d3400000000000000000000000000000000007f
:103d44000002080001015200085308005208520002
:103d54000852080052084200080000000000000059
:103d6400000000000000000000000000000000004f
:103d74000000000000000200080202007a087b0034
:103d8400087a08007a087a00087a08006a080000ad
:103d9400000000000000000000000000000000001f
:103da40000000000000000000000000004082c00d7
:103db400085408000000000000000000000000009b
:103dc40000000000120900001a0000008200000038
:103dd400686a6c00747a4c00000001000002000064
:103de4000400080000100000000020002b2d230018
:103df40030000000f00800002200000082000000f3
:103e0400303132003334350036373800394142001e
:103e14004344450046003000313233003435360027
:103e24003738390061626300646566000000000091
:103e34003809000002000000800000003a09000078
:103e440002000000820000000400000034090000a9
:103e540004000000800000003c0900000200000093
:083e64008000000000000000d6
:020000040000fa
:103e6c000200fa00000f78001e007800e20f5000ec
:103e7c0013003200e20f500003003e00e10f50002f
:103e8c000600320029003700e30f50001500320005
:103e9c00e40f50001c003200240037000135800074
:103eac00000420000080600000f0a7000000ea0081
:103ebc000000e9004f00de00004078001c003700d5
:103ecc0001358000000820000080600000f0a70091
:103edc000000ea000000e9004f00de00004078001e
:103eec0013003700213380000008200000806000a0
:103efc0000f0a7000000ea000000e9004f00de001f
:103f0c00004078000a0037000135800000002200d4
:103f1c000080600000f0a7000000ea000000e9004b
:103f2c004f00de0000407800010037000040eb003d
:103f3c000080fa00000006000200fa00000f780072
:103f4c001e007800e20f50000d003200e20f50000e
:103f5c0003003e00e10f5000060032001000370055
:103f6c00e30f500009003200e40f50000a00320049
:103f7c000b0037009ec6a800a6c6a9000800370093
:103f8c009ee6a800a6e6a9000500370062e6a80098
:103f9c006ae6a900020037009fa6a80000000000f6
:103fac000080fa00000006000200fa003e00070044
:103fbc001000200034fe07002000200032fe070015
:103fcc0010002000dcff07000000eb001bff0700c7
:103fdc00420620000300200000052200e3fe07003b
:103fec00c09220008040eb0001487800c092200075
:103ffc00fef80700c09220000bfa07000000eb004f
:10400c009dfe0700500020008dfe0700c000200020
:10401c00c7f10700500020005ffe0700000f78007a
:10402c00c092200067fa07003093200010407800ff
:10403c000081fb0020932000104078008080fb0062
:10404c0010932000104078000080fb009e1f780029
:10405c00821f7800811f7800801f7800e01c2900e7
:10406c00801f7800e8f10700ea8757001000200055
:10407c007bff07000004e00003003200200020005a
:10408c00d2fc0700e3ff370020002000f8fc0700fb
:10409c00e0ff37000000fa00100020001dfd0700b3
:1040ac000080fa00000006000000fa00cefa0700bb
:0840bc000080fa00000006007c
:020000040000fa
:020000040015e5
:047e0000ffff000080
:020000040000fa
:020000040015e5
:047e2000ff1f000040
:020000040000fa
:020000040015e5
:047e30000bffff0045
:020000040000fa
:020000040015e5
:047e3800beffff008a
:020000040000fa
:020000040015e5
:047e40009fffff00a1
:020000040000fa
:020000040015e5
:047e4800fbffff003d
:020000040000fa
:020000040015e5
:047e5000deffff0052
:020000040000fa
:020000040015e5
:047e5800efffff0039
:00000001FF
